:020000040800F2
:10000000000002202D11000885110008851100084C
:100010008511000885110008851100080000000006
:10002000000000000000000000000000811C00082B
:100030008511000800000000691D0008B91D0008B6
:100040008511000885110008851100088511000838
:100050008511000885110008851100088511000828
:100060008511000885110008851100088511000818
:100070008511000885110008851100088511000808
:1000800085110008851100088511000885110008F8
:1000900085110008851100088511000885110008E8
:1000A00085110008851100088511000885110008D8
:1000B00085110008851100088511000885110008C8
:1000C00085110008851100088511000885110008B8
:1000D00085110008310E00088511000885110008FF
:1000E0008511000885110008851100088511000898
:1000F0008511000885110008851100088511000888
:100100008511000885110008851100088511000877
:100110008511000885110008851100088511000867
:100120008511000885110008851100088511000857
:100130008511000885110008851100088511000847
:100140008511000885110008851100088511000837
:100150008511000885110008851100088511000827
:100160008511000885110008851100088511000817
:100170008511000885110008851100088511000807
:0801800085110008851100083B
:1001880040F24853C2F200031A780AB901201870E5
:10019800704700BF40F24450C2F2000008B503683F
:1001A8002BB140F20003C0F2000303B1984708BD29
:1001B80070B542F2A45642F2A455C0F60006C0F645
:1001C8000005761BB61006D0002455F8043B013410
:1001D8009847A642F9D142F2AC5642F2A455C0F66D
:1001E8000006C0F60005761B02F0CCF9B61006D062
:1001F800002455F8043B01349847A642F9D170BD54
:1002080040F200030146C2F20003186800F008B883
:1002180040F200030146C2F20003186800F058BC1F
:100228002DE9F04F01F10B04162C83B0064631D9A5
:1002380024F00704E30F8C422CBF194643F0010158
:10024800002930D1304601F097F8B4F5FC7F2FD261
:100258004FEAD40C40F2F405C2F2000505EBCC02DB
:100268002F46D368934200F02D825C6803F108089A
:10027800DA68304624F0030499681B195C68CA6080
:1002880044F0010491605C6001F080F8404603B0DE
:10029800BDE8F08F002310248C422CBF194643F090
:1002A80001010029CED00C234FF000083360EDE7A0
:1002B8005FEA542C04BF4FEAD40C4FEACC0040F05C
:1002C800868040F2F405C2F2000528182F46C3685C
:1002D800984206D10DE0002980F27981DB689842C6
:1002E80007D05A6822F00302111B0F29F3DD0CF125
:1002F800FF3C0CF1010CBD4A93689A4208BF78682C
:1003080024D0586820F00300011B0F2900F3C08196
:100318000029D260926080F29480B0F5007F80F06E
:100328007781C0084FF0010ED7F8048007EBC001B1
:1003380080100EFA00F0D960D1F808E040EA080011
:100348007860C3F808E0CEF80C308B604FF0010EEF
:100358004FEAAC030EFA03FE86457DD810EA0E0F6D
:1003680008D12CF0030C4FEA4E0E0CF1040C10EAE5
:100378000E0FF8D007EBCC0AE146D046D8F80C00AF
:10038800804507D196E1002B80F2A681C0688045A0
:1003980000F09081416821F003010B1B0F2BF2DD67
:1003A8008046C568011944F0010E58F8087F43F0EB
:1003B8000104C0F804E030464C60FD60AF60D160D5
:1003C8009160CA608A60CB5000F0E0FF5EE7BCF144
:1003D800040F9EBF4FEA941C0CF1380C4FEACC0076
:1003E8007FF66FAFBCF1140F9CBF0CF15B0C4FEAAA
:1003F800CC007FF666AFBCF1540F9EBF4FEA143CA9
:100408000CF16E0C4FEACC007FF65BAFBCF5AA7F0F
:100418009EBF4FEAD43C0CF1770C4FEACC007FF634
:1004280050AF40F254539C4595BF4FEA944C4FF45B
:100438007C700CF17C0C4FF07E0C98BF4FEACC001E
:100448003FE71A1803F108083046536843F00103E0
:10045800536000F09BFF19E7D7F80880D8F80430FC
:1004680023F003094C45C4EB090294BF0023012380
:100478000F2AD8BF43F00103002B00F0B98040F2E7
:100488004C5AD5F80834C2F2000A3046B3F1FF3F9F
:10049800DAF8002002F1100BA3441FBF0BF57E6BA6
:1004A8000BF11F0B2BF47E6B2BF01F0B594600F042
:1004B8002DFFB0F1FF3F034600F0188108EB09015A
:1004C800814200F21081DAF8042081425A44CAF8C5
:1004D800042000F03E81D5F808E440F2F405C2F2A9
:1004E8000005BEF1FF3F17BF8218C5F80804C1EB2D
:1004F8000201CAF8041010F0070517BFC5F1080576
:100508004FF48055431905F5805503EB0B0230462F
:1005180001931205120DAD1A294600F0F7FE019B52
:10052800B0F1FF3F00F02C81C11A491941F00101D7
:10053800DAF80420B84540F24C5BBB602A44C2F2AA
:10054800000B5960CAF8042017D0B9F10F0F40F218
:10055800E180A9F10C03D8F8045023F00703052023
:1005680008EB03010F2B05F0010543EA0505C8F860
:1005780004504860886000F2FB80DAF82C1040F2E2
:100588004C53C2F200038A42DAF8301088BFDA62AC
:1005980040F24C538A42C2F2000340F2A780D7F8D7
:1005A80008801A63D8F8043023F003039C42C4EB94
:1005B800030294BF002301230F2AD8BF43F001038D
:1005C800B3B130464FF0000800F0E0FE5EE69A183E
:1005D800D9689C6803F108085568304645F001035E
:1005E800E1608C60536000F0D1FE4FE6FC00002013
:1005F80008EB040342F0010244F001043046C8F855
:10060800044008F108085A60BB6000F0BFFE3DE6F0
:10061800410A04299CBF4FEA901E0EF1380E1DD9DD
:10062800142998BF01F15B0E18D954299CBF4FEAD1
:10063800103E0EF16E0E11D9B1F5AA7F9CBF4FEA9C
:10064800D03E0EF1770E09D940F2545E714596BF3F
:100658004FEA904E4FF07E0E0EF17C0E07EBCE085F
:10066800D8F80810414503D147E08968884505D086
:10067800D1F804E02EF0030E7045F6D3D1F80CE063
:10068800C3F80CE099607868CB60CEF808305DE676
:100698001D1941F00107D56044F00104956030460A
:1006A8005C6003F10808EA60AA606F60695000F0B6
:1006B8006DFEEBE509F1010919F0030F2FD008F1E0
:1006C80008085BE603F108025B699A4208BF0CF16F
:1006D800020C3FF410AEC8E580464318C2683046A5
:1006E80058F8081FCAE5B8453FF4EDAED7F80880BA
:1006F800D8F8043023F0030358E74FF00109D7F87E
:1007080004804FEAAE008E4609FA00F048EA00007D
:100718007860B5E7984601225A60002346E75146BB
:100728001CF0030F0B460CF1FF3C2CD053F80819B2
:100738009942F5D07B684FEA4E0E9E453FF68CAE47
:10074800BEF1000F3FF488AE1EEA030F20D0CC465E
:1007580010E64FEA015E4FEA1E5EBEF1000F7FF41D
:10076800BAAEBB680BEB090141F00101596004E71F
:10077800304608F1080100F0ABF9DBF80420FCE68C
:1007880001210025D4E67B6823EA0E037B60D1E7CC
:100798004FEA4E0E09F10409D6E700BF032AC9B291
:1007A80070B408D82AB10346121803F8011B934203
:1007B800FBD170BC70478218044601E004F8011BA5
:1007C80014F0030FFAD14FF0013303FB01F31FE0DC
:1007D80044F8403C44F83C3C44F8383C44F8343C49
:1007E80044F8303C44F82C3C44F8283C44F8243C79
:1007F80044F8203C44F81C3C44F8183C44F8143CA9
:1008080044F8103C44F80C3C44F8083C44F8043CD8
:10081800161B254640343F2EDADC2C4607E044F808
:10082800103C44F80C3C44F8083C44F8043C161BC3
:10083800254610340F2EF2DC01E045F8043B541B2A
:10084800032CFADC01E005F8011B9542FBD3B0E765
:1008580041EA000313F0030F0B4670B414BF0024E1
:100868000124032A94BF002404F001040546D4B9E6
:10087800BAB10E782B46013A03F8016B56B1AC1C9D
:100888007AB111F8015F2346013A04F8015C01349A
:10089800002DF5D12AB19A18002103F8011B9342C3
:1008A800FBD170BC7047194653F8044BA4F10136CC
:1008B80026EA040616F0803FDAD1043A45F8044BDC
:1008C800032A1946EFD8D3E740F20003C0F2000329
:1008D8002BB140F60120C0F6000000F087B8704741
:1008E80042F2245340F21922C0F60003C0F6000277
:1008F8002DE9F04F0F461B6885B0039002930192D3
:10090800029BD3F84890B9F1000F1CD003F1480AB4
:10091800D9F80450D9F888806C1E11D4AE1C08EBA5
:10092800850509EB86068FB1B8F1000F02D0EB6F91
:10093800BB420BD0013C043D043EB4F1FF3FF2D171
:10094800019A002A34D105B0BDE8F08FD9F8042007
:1009580056F8043C013AA24208BFC9F8044002D044
:10096800002046F8040C002BE4D0D9F804B0B8F104
:10097800000F17D00120D8F8001110FA04F20A422B
:1009880010D0D8F804110A420ED1039855F8041C67
:100998009847D9F804305B45B2D1DAF800304B45B6
:1009A800C8D0ADE79847F4E755F8040C9847F0E746
:1009B800D9F804303BB1D9F80030CA469946B9F1A4
:1009C800000FA5D1BFE7D9F80030002BF5D0CAF841
:1009D8000030B8F1000F02D04046FFF719FC484636
:1009E800FFF716FCDAF80090E9E700BF014600209F
:1009F8000246034600F038B970B542F2B05442F2EC
:100A0800AC55C0F60004C0F60005641BA41006D05F
:100A180005EB840555F8043D9847013CFAD1BDE83B
:100A2800704001F0B5BD00BFF8B540F2F404C2F261
:100A380000040F46054600F09FFCA3685E6826F098
:100A4800030606F57E630F33DF1B3F0B013F3F03B1
:100A5800B7F5805F07DB0021284600F057FCA36844
:100A68009B19984204D0284600F090FC0020F8BD5D
:100A78007942284600F04AFCB0F1FF3F10D040F21E
:100A88005053A168C2F20003F61B284646F001063F
:100A98001A684E60D71B1F6000F078FC0120F8BD73
:100AA8000021284600F032FCA368C21A0F2ADADDBA
:100AB80040F2FC4440F25051C2F20004C2F200017C
:100AC80042F001025A602368C01A0860CBE700BFF1
:100AD8002DE9F0410D460446002958D000F04CFCA1
:100AE800A5F1080240F2F4005668C2F2000026F0B0
:100AF8000103D0F808C0D1188C454F6827F00307C8
:100B080065D016F001064F6031D00026CD196D680A
:100B180015F0010F06D1DB19002E4BD08D68C9687E
:100B2800E9608D6043F00101D3505160D6B9B3F547
:100B3800007F2ED3590A04296BD89E093836F50050
:100B48004519A968A94203D169E089688D4204D092
:100B5800486820F003008342F7D3CB68D3609160E4
:100B6800CA609A602046BDE8F04100F00FBC55F815
:100B7800085C00F1080C521B5B199568654546D066
:100B8800D2F80CC0C5F80CC0CCF80850BEE7BDE8D8
:100B9800F081DB080125466800EBC3019B1015FABC
:100BA80003F3D1608D6846EA030343609560EA6009
:100BB8008A60D7E78D682B4FBD42B0D1EA6043F019
:100BC8000101AA60D56095605160D350CAE716F05C
:100BD800010F3B4407D155F8081C521A5B18956859
:100BE800D168E9608D6040F2005143F00105C2F21E
:100BF8000001556082600A689342B3D340F24C53B7
:100C08002046C2F200031968FFF70EFFAAE7012683
:100C18007CE714290CD801F15B06F50090E7012563
:100C28004768B6100B46B54047EA0505456095E7A5
:100C3800542903D81E0B6E36F50081E7B1F5AA7F5B
:100C480003D8DE0B7736F5007AE740F25455A9420F
:100C580003D89E0C7C36F50072E74FF47C757E262F
:100C68006EE700BFFC0000202DE9F04142F2245459
:100C7800C0F6000484B005462668B46C002C29D060
:100C880060681F282ADCDDB1D4F8880000282DD040
:100C9800D0F800816668012706F1200CB740022DC4
:100CA80040F8262040F82C3048EA070208BFD0F860
:100CB8000431C0F8002104BF1F43C0F8047100E0EC
:100CC8006668B31C00200136666044F8231004B03F
:100CD800BDE8F08106F14C04B464D1E740F2092084
:100CE800C0F60000E8B94FF0FF30F0E740F2092005
:100CF800C0F600000028F6D04FF4847003910292E9
:100D08000193FFF77DFA0399029A019B0028EAD024
:100D18000026C0F80061C0F80461B046C4F8880035
:100D2800B8E78C20039102920193FFF769FA0399BF
:100D3800029A019B04460028D5D0B06C0027676052
:100D48002060B464002D9FD1BAE700BF80B582B09F
:100D580000AF786039607B68DB68002B02D14FF008
:100D6800000325E000F0D4FF7B6819687B689B6866
:100D78001A468A1811783A68117003F101027B68E3
:100D88009A607B689A687B685B689A4206DB7B6836
:100D98009A687B685B68D21A7B689A607B68DB68B4
:100DA80003F1FF327B68DA6000F0C4FF4FF0010303
:100DB800184607F10807BD4680BD00BF80B584B05E
:100DC80000AF78600B46FB707B68DA687B685B680D
:100DD8009A4202DB4FF0000321E000F099FF7B68A4
:100DE8009A687B68DB68D318FB607B685A68FB6885
:100DF8009A4204DC7B685B68FA68D31AFB607B68FC
:100E08001A68FB68D318FA781A707B68DB6803F1F4
:100E180001027B68DA6000F08DFF4FF0010318468D
:100E280007F11007BD4680BD80B582B000AF224BE8
:100E38001B889BB203F02003002B17D01E4B9B8806
:100E48009BB2DBB21D481946FFF7B8FF0346002BDB
:100E580006D11B4B1B6803F10102194B1A6005E010
:100E6800174B5B6803F10102154B5A60124B1B8844
:100E78009BB203F08003002B1AD007F10703114837
:100E88001946FFF763FF0346002B03D00A4BFA7994
:100E98009A8007E0084B084A928992B222F08002B1
:100EA80092B29A81064B9B6803F10102044B9A6047
:100EB80007F10807BD4680BD001001400405002069
:100EC800800600201405002080B582B000AF00F035
:100ED8001FFF164B5B6A7B60154B1B881A467B68A5
:100EE8009A4203DD7B6803F580337B60104B1B88D7
:100EF8007A68D31A18464FEAE3710E4BD3E90023F8
:100F0800121843EB01030B49C1E900237B689AB22D
:100F1800074B1A8000F00EFF064BD3E9002310465A
:100F2800194607F10807BD4680BD00BF0014004000
:100F38008C0600209006002080B584B000AF3B46A8
:100F4800184601F06FF80F4B0E4A126C42F020025F
:100F58001A640D4BF9680D4AA2FB01024FEA92424E
:100F680092B202F1FF3292B21A85074B4FF6FF7226
:100F7800DA62054B4FF001021A8007F11007BD46EF
:100F880080BD00BF003802400014004083DE1B43D0
:100F980080B584B000AF78600AE014484FF00F01C4
:100FA80001F05CFA0346002B02D0104801F044FA25
:100FB8000E484FF0200101F051FA0346002BECD007
:100FC8000A4801F039FA0346FB6000BF07484FF0B2
:100FD800800101F043FA0346002BF7D0FB689BB26F
:100FE8000248194601F014FA00BFE1E70044004046
:100FF80080B586B000AF4FF001004FF0010101F05D
:10100800CFF84FF400304FF0010101F0EBF84FF04A
:101018000C033B614FF002033B754FF00003BB75B7
:101028004FF00003FB754FF002037B7507F11003C7
:101038002648194600F0FCFE24484FF002014FF004
:10104800070200F099FF21484FF003014FF0070213
:1010580000F092FF4FF008004FF0010101F0A0F8F6
:101068004FF470433B614FF001033B754FF00003B1
:10107800BB754FF003037B754FF00003FB7507F159
:1010880010031348194600F0D3FE4FF416433B6093
:101098004FF00003BB804FF00003FB804FF00003CC
:1010A8003B814FF00003BB814FF00C037B813B4633
:1010B8000848194601F0B8F806484FF0010101F058
:1010C80087F907F11807BD4680BD00BF0000024040
:1010D800000C02400044004080B584B004AFFFF724
:1010E80087FF0E4B4FF0010200924FF00002019271
:1010F8004FF0000202924FF000020392084819468E
:101108004FF080024FF0000300F04AF900F0F8F9C0
:101118004FF000031846BD4680BD00BFA424000858
:10112800990F0008002103E00E4B5B58435004312F
:101138000D480E4B42189A42F6D30D4A02E000239E
:1011480042F8043B0B4B9A42F9D30B48016841F42F
:101158007001016000F014F8FFF72AF8FFF7BCFFF0
:1011680070470000B025000800000020440500205A
:1011780048050020A407002088ED00E0FEE70000F5
:1011880080B500AF124B124A126842F001021A6091
:101198000F4B4FF000029A600D4A0D4B1B6823F06D
:1011A800847323F480331360094B0A4A5A60084B4E
:1011B800074A126822F480221A60054B4FF0000299
:1011C800DA6000F00BF8044B4FF000629A6080BDC3
:1011D800003802401030002400ED00E080B483B0F5
:1011E80000AF4FF000037B604FF000033B60424BC1
:1011F800414A126842F480321A603F4B1B6803F47C
:1012080000333B607B6803F101037B603B68002B84
:1012180003D17B68B3F5A06FEFD1374B1B6803F49C
:101228000033002B03D04FF001033B6002E04FF086
:1012380000033B603B68012B42D12F4B2E4A126CB6
:1012480042F080521A642D4B2C4A126842F48042B4
:101258001A60294B284A92689A60274B264A926856
:1012680042F400429A60244B234A926842F4A05206
:101278009A60214B224A5A601F4B1F4A126842F05B
:1012880080721A6000BF1C4B1B6803F00073002BB0
:10129800F9D01C4B40F205621A60174B164A926847
:1012A80022F003029A60144B134A926842F0020239
:1012B8009A6000BF104B9B6803F00C03082BF9D110
:1012C8000D4B0D4A926822F400029A600A4B0E4AAE
:1012D800C3F88420084B084A126842F080621A60FA
:1012E80000BF054B1B6803F00063002BF9D007F122
:1012F8000C07BD4680BC70470038024000700040B3
:1013080008544007003C02400030005090B484B0BC
:1013180000AF78603960154B1B68002B02D1134B66
:10132800134A1A60114B1A683B68D218EFF3088405
:10133800234619460F4B1B68CB1A9A4206D97B687D
:101348004FF00C021A604FF0FF3309E0074B1B689F
:10135800FB60064B1A683B68D218044B1A60FB689E
:10136800184607F11007BD4690BC7047A00700203B
:10137800A40700202805002080B582B000AF78605F
:1013880000F0C6FC07F10807BD4680BD80B582B0F5
:1013980000AF786000F0CEFC07F10807BD4680BDBD
:1013A80080B58AB002AFF860B9603B601346FB8035
:1013B800FB881846396B00F059FBB861BB69002BF4
:1013C80078D0BB691A6BFB8803F1FF334FEA8303BC
:1013D800D3187B617B6923F007037B61FB8800934B
:1013E800B869B968BA6A7B6B00F07AFA7869F96803
:1013F8003A6800F009FC03461A46BB691A60FB6AA2
:10140800002B02D0FB6ABA691A6000F081FC354BE8
:101418001B6803F10102334B1A60334B1B68002B26
:1014280009D1314BBA691A602E4B1B68012B0FD1B9
:1014380000F09CFA0CE02D4B1B68002B08D12A4BBE
:101448001B68DA6ABB6A9A4202D8274BBA691A60E3
:10145800BB69DA6A264B1B689A4203D9BB69DA6A08
:10146800234B1A60234B1B6803F10102214B1A60BE
:10147800BB69DA6A204B1B689A4203D9BB69DA6AEE
:101488001D4B1A60BB69DA6A13464FEA83039B183F
:101498004FEA83031A46194BD218BB6903F10403B8
:1014A8001046194600F05EFB4FF00103FB6100F0A7
:1014B80041FC02E04FF0FF33FB61FB69012B0BD1CC
:1014C8000A4B1B68002B07D0074B1B68DA6ABB6AFC
:1014D8009A4201D200F010FCFB69184607F1200778
:1014E800BD4680BD740700209806002084070020B0
:1014F8007C07002098070020800700209C06002019
:1015080080B586B004AF164B4FF000020092154A22
:1015180001924FF0000202924FF00002039212482B
:1015280019464FF480724FF00003FFF739FF7860D7
:101538007B68012B0FD14FF0BF0080F311880B4B54
:101548004FF001021A600A4B4FF000021A60FFF7D1
:10155800F3FC00F0A9FB07F10807BD4680BD00BFFA
:10156800B024000870070020C51800088407002070
:101578007807002080B400AF044B1B6803F1010218
:10158800024B1A60BD4680BC704700BF8807002028
:1015980090B583B000AF4FF000037B6000F0B8FB5C
:1015A800384B1B6803F1FF32364B1A60354B1B680A
:1015B800002B5ED1344B1B68002B5AD04FF0000330
:1015C8003B602EE0314BDB68DB681C4604F11803F6
:1015D800184600F0EFFA04F10403184600F0EAFA9E
:1015E800E26A2B4B1B689A4202D9E26A284B1A60BE
:1015F800E26A13464FEA83039B184FEA83031A46AD
:10160800244BD21804F104031046194600F0AAFA34
:10161800E26A214B1B68DB6A9A4202D34FF001034E
:101628003B601A4B1B68002BCCD11C4B1B68002B52
:101638000FD007E000F036F8184B1B6803F1FF32B3
:10164800164B1A60154B1B68002BF3D14FF00103A2
:101658003B603B68012B03D0114B1B68012B08D161
:101668004FF001037B600E4B4FF000021A6000F050
:1016780043FB00F05FFB7B68184607F10C07BD468B
:1016880090BD00BF880700207407002030070020A5
:10169800800700209C060020980600208C07002068
:1016A8009007002080B584B000AF444B1B68002B26
:1016B8007AD1434B1B6803F10102414B1A60404B3E
:1016C8001B68002B22D13F4B1B68FB603E4B1A68FE
:1016D8003C4B1A603C4BFA681A603C4B1B6803F1A0
:1016E80001023A4B1A60374B1B681B68002B04D168
:1016F800374B4FF0FF321A6008E0324B1B68DB684B
:10170800DB68BB60BB685A68314B1A602C4B1A689F
:101718002F4B1B689A424DD32A4B1B681B68002B22
:1017280004D12B4B4FF0FF321A6043E0254B1B6866
:10173800DB68DB68BB60BB685B687B60204B1A6852
:101748007B689A4203D2224B7A681A6032E0BB68FF
:1017580003F10403184600F02DFABB689B6A002BBE
:1017680005D0BB6803F11803184600F023FABB68DC
:10177800DA6A184B1B689A4203D9BB68DA6A154BB8
:101788001A60BB68DA6A13464FEA83039B184FEA6C
:1017980083031A46104BD218BB6803F104031046A2
:1017A800194600F0DFF9B7E70C4B1B6803F101029B
:1017B8000A4B1A6007F11007BD4680BD8807002054
:1017C80078070020280700202C0700209407002015
:1017D8002C050020800700209C0600208C07002094
:1017E80080B582B000AF2E4B1B68002B04D02D4B68
:1017F8004FF001021A604EE0FFF766FB02460B4607
:1018080013467B60284B1B68D96C284A1268786895
:10181800821A8A18DA64254B7A681A6005E0244B24
:101828001B6803F1FF32224B1A60214B1A681346DA
:101838004FEA83039B184FEA83031A461D4BD318BC
:101848001B68002BEBD01A4B1A6813464FEA830328
:101858009B184FEA83031A46164BD3183B603B6824
:101868005B685A683B685A603B685A683B6803F192
:1018780008039A4204D13B685B685A683B685A601F
:101888003B685B68DB681A46074B1A600A4B064AD6
:101898001268926CDA6007F10807BD4680BD00BF88
:1018A8008807002090070020980600209C07002049
:1018B800800700209C0600200074004080B582B09C
:1018C80000AF786000E000BF00F094F8034B1B689D
:1018D800012BF8D900F010FAF6E700BF9C060020AB
:1018E80080B584B000AFF860B9607A603B60FB688F
:1018F80003F134031A46BB68104619464FF010022C
:10190800FEF7A6FFFB684FF0000283F843207B68D0
:10191800042B02D94FF004037B60FB687A68DA6213
:10192800FB687A685A64FB6803F10403184600F000
:101938000BF9FB6803F11803184600F005F9FB687A
:10194800FA681A617B68C3F10502FB689A61FB6853
:10195800FA685A62FB684FF000029A64FB684FF01D
:101968000002DA6407F11007BD4680BD80B582B079
:1019780000AF4FF000037B6010E07A6813464FEA2F
:1019880083039B184FEA83031A46124BD318184651
:1019980000F0B6F87B6803F101037B607B68042BD9
:1019A800EBD90D4800F0ACF80C4800F0A9F80C4849
:1019B80000F0A6F80B4800F0A3F80B4800F0A0F8D8
:1019C8000A4B054A1A600A4B044A1A6007F10807CD
:1019D800BD4680BD9C06002000070020140700209B
:1019E80030070020440700205C070020280700205B
:1019F8002C07002080B582B000AF194B1B68002B64
:101A08002AD0FFF7B7FD174B1B68002B14BF002324
:101A180001237B60FFF7BCFD7B68002B1CD100F025
:101A280077F9104BDB68DB683B603B6803F1040324
:101A3800184600F0BFF80C4B1B6803F1FF320A4B45
:101A48001A60074B1B6803F1FF32054B1A6000F060
:101A580071F9386800F044F807F10807BD4680BD01
:101A680058070020440700207407002080B584B080
:101A780000AF03463960FB804FF05000FEF7C0FB13
:101A88000346FB60FB68002B23D03B68002B07D183
:101A9800FB884FEA83031846FEF7B2FB034600E0D3
:101AA8003B68FA681363FB681B6B002B06D1F86868
:101AB800FEF7AEFB4FF00003FB600AE0FB681A6B11
:101AC800FB884FEA830310464FF0A5011A46FEF73C
:101AD80065FEFB68184607F11007BD4680BD00BFCC
:101AE80080B582B000AF78607B681B6B1846FEF744
:101AF8008FFB7868FEF78CFB07F10807BD4680BDB1
:101B080080B483B000AF78607B6803F108031A469D
:101B18007B685A607B684FF0FF329A607B6803F1FC
:101B280008031A467B68DA607B6803F108031A46E3
:101B38007B681A617B684FF000021A6007F10C0796
:101B4800BD4680BC704700BF80B483B000AF7860EA
:101B58007B684FF000021A6107F10C07BD4680BC94
:101B6800704700BF80B485B000AF786039607B688B
:101B78005B68FB60FB685A683B685A607B685A6818
:101B88003B689A60FB685B683A689A603A68FB68E9
:101B98005A603A687B685A603B687A681A617B6861
:101BA8001B6803F101027B681A6007F11407BD4640
:101BB80080BC704780B485B000AF78607B685B6894
:101BC8007A6892689A607B689B687A6852685A60FB
:101BD8007B681B69FB60FB685A687B689A4203D183
:101BE8007B689A68FB685A607B684FF000021A614C
:101BF800FB681B6803F1FF32FB681A6007F11407E2
:101C0800BD4680BC704700BF80B485B000AFF860A7
:101C1800B9607A60FB68A3F10403FB60FB684FF0CE
:101C280080721A60FB68A3F10403FB60BA68FB6862
:101C38001A60FB68A3F10403FB60FB684FF0000225
:101C48001A60FB68A3F11403FB607A68FB681A60EA
:101C5800FB68A3F10403FB60FB686FF002021A60E3
:101C6800FB68A3F12003FB60FB68184607F1140723
:101C7800BD4680BC704700BF054B19680868B0E8CE
:101C8800F04F80F309884FF0000080F31188704707
:101C98009806002003480068006880F3088862B648
:101CA80000DF00BF08ED00E080B500AF0F4B0F4A22
:101CB800126842F47F021A600C4B0C4A126842F018
:101CC8007F421A6000F08EF8094B4FF000021A604C
:101CD80000F0A4F8074B074A126842F040421A6025
:101CE800FFF7D8FF4FF00003184680BD20ED00E055
:101CF8003005002034EF00E080B400AF034B4FF014
:101D080080521A60BD4680BC704700BF04ED00E0F9
:101D180080B400AF4FF0BF0080F31188044B1B68FC
:101D280003F10102024B1A60BD4680BC704700BF38
:101D38003005002080B400AF084B1B6803F1FF3268
:101D4800064B1A60054B1B68002B03D14FF00000AF
:101D580080F31188BD4680BC704700BF3005002065
:101D6800EFF30980114B1A681EF0100F08BF20ED21
:101D7800108A20E9F04F10602DE908404FF0BF00AD
:101D880080F31188FFF72CFD4FF0000080F31188D5
:101D9800BDE8084019680868B0E8F04F1EF0100F59
:101DA80008BFB0EC108A80F30988704798060020B5
:101DB80080B582B000AF0A4B4FF080521A604FF0E6
:101DC80000037B604FF0BF0080F31188FFF76AFCC7
:101DD8004FF0000080F3118807F10807BD4680BD69
:101DE80004ED00E080B400AF084B094A1168094AC5
:101DF800A2FB01024FEA921202F1FF321A60064B6F
:101E08004FF007021A60BD4680BC704714E000E03E
:101E180024050020D34D621010E000E0DFF80C002C
:101E2800016841F4700101607047000088ED00E02E
:101E380080B487B000AF786039604FF000037B61F1
:101E48004FF000033B614FF00003FB604FF00003CD
:101E58007B6187E07B694FF0010202FA03F33B6183
:101E68003B681A683B6902EA0303FB60FA683B694E
:101E78009A4273D17B681A687B694FEA43034FF033
:101E8800030101FA03F36FEA03031A407B681A603F
:101E98007B681A683B681B7919467B694FEA4303DC
:101EA80001FA03F31A437B681A603B681B79012B1C
:101EB80003D03B681B79022B34D17B689A687B6915
:101EC8004FEA43034FF0030101FA03F36FEA0303F8
:101ED8001A407B689A607B689A683B685B79194608
:101EE8007B694FEA430301FA03F31A437B689A605C
:101EF8007B685A687B699BB24FF0010101FA03F3D2
:101F08006FEA03031A407B685A607B685A683B682B
:101F18009B7919467B699BB201FA03F39BB21A437A
:101F28007B685A607B68DA687B699BB24FEA430337
:101F38004FF0030101FA03F36FEA03031A407B68C9
:101F4800DA607B68DA683B68DB7919467B694FEAB7
:101F5800430301FA03F31A437B68DA607B6903F1F0
:101F680001037B617B690F2B7FF674AF07F11C07B8
:101F7800BD4680BC704700BF80B485B000AF7860B4
:101F880013460A467A807B704FF00003FB604FF0DF
:101F98000003BB607A787B8803F007034FEA83036A
:101FA80002FA03F3FB607B884FEAD3039BB21A461D
:101FB8007B884FEAD3039BB219467B6801F108017D
:101FC80053F821107B8803F007034FEA83034FF08F
:101FD8000F0000FA03F36FEA030319407B6802F16C
:101FE800080243F822107B884FEAD3039BB21A46B3
:101FF8007B6802F1080253F82220FB6842EA0303D7
:10200800BB607B884FEAD3039BB21A467B6802F118
:102018000802B96843F8221007F11407BD4680BCCE
:10202800704700BF80B489B000AF78604FF00003FC
:10203800BB614FF000037B614FF00003FB614FF081
:1020480002033B614FF00003FB604FF00203BB60EB
:102058004F4B9B6803F00C03BB61BB69042B07D093
:10206800082B09D0002B47D17B684A4A1A6047E001
:102078007B68494A1A6043E0454B5B6803F4800378
:102088004FEA9353FB60424B5B6803F03F03BB602E
:10209800FB68002B0FD0404ABB68B2FBF3F23C4B05
:1020A800596847F6C07301EA03034FEA931303FB29
:1020B80002F3FB610EE0374ABB68B2FBF3F2344B24
:1020C800596847F6C07301EA03034FEA931303FB09
:1020D80002F3FB612E4B5B6803F440334FEA134372
:1020E80003F101034FEA43033B61FA693B69B2FB21
:1020F800F3F27B681A6003E07B68264A1A6000BF27
:10210800234B9B6803F0F003BB61BB694FEA1313D1
:10211800BB61224ABB69D3181B78DBB27B617B6841
:102128001A687B6922FA03F27B685A60184B9B682D
:1021380003F4E053BB61BB694FEA9323BB61174AC1
:10214800BB69D3181B78DBB27B617B685A687B69F3
:1021580022FA03F27B689A600D4B9B6803F4604394
:10216800BB61BB694FEA5333BB610C4ABB69D318E7
:102178001B78DBB27B617B685A687B6922FA03F2C1
:102188007B68DA6007F12407BD4680BC704700BF52
:10219800003802400024F40000127A0034050020C0
:1021A80080B483B000AF78600B46FB70FB78002BDF
:1021B80007D00B4B0A4A116B7A6841EA02021A638C
:1021C80008E0074B064A116B7A686FEA020201EAD7
:1021D80002021A6307F10C07BD4680BC704700BFB6
:1021E8000038024080B483B000AF78600B46FB70C3
:1021F800FB78002B07D00B4B0A4A116C7A6841EA2E
:1022080002021A6408E0074B064A116C7A686FEA02
:10221800020201EA02021A6407F10C07BD4680BCFB
:10222800704700BF0038024080B58AB000AF7860C0
:1022380039604FF000037B624FF000033B624FF0C0
:102248000003FB614FF00003BB617B681B8A9BB2F4
:102258007B627B6A23F440537B623B68DB887A6A43
:1022680042EA03037B627B6A9AB27B681A827B68C4
:102278009B899BB27B627B6A23F4B05323F00C03E7
:102288007B623B689A883B681B8942EA03039AB2DF
:102298003B685B8942EA03039BB27A6A42EA03031A
:1022A8007B627B6A9AB27B689A817B689B8A9BB2C5
:1022B8007B627B6A23F440737B623B689B897A6A02
:1022C80042EA03037B627B6A9AB27B689A8207F1CF
:1022D80008031846FFF7A6FE7A683A4B9A4203D0DD
:1022E8007A68394B9A4202D17B693B6201E03B69CB
:1022F8003B627B689B899BB29BB21BB2002B0FDAB7
:102308003A6A13464FEA83039B184FEA83029A18E6
:102318003B681B684FEA4303B2FBF3F3FB610EE033
:102328003A6A13464FEA83039B184FEA83029A18C6
:102338003B681B684FEA8303B2FBF3F3FB61FA695E
:10234800224BA3FB02134FEA53134FEA03137B629A
:102358007B6A4FEA13134FF0640202FB03F3FA6936
:10236800D31ABB617B689B899BB29BB21BB2002BC3
:1023780010DABB694FEAC30303F13202134BA3FB24
:1023880002134FEA531303F007037A6A42EA03037E
:102398007B620FE0BB694FEA031303F132020B4B78
:1023A800A3FB02134FEA531303F00F037A6A42EABE
:1023B80003037B627B6A9AB27B681A8107F128075C
:1023C800BD4680BD00100140001401401F85EB513F
:1023D80080B483B000AF78600B46FB70FB78002BAD
:1023E80008D07B689B899BB243F400539AB27B6800
:1023F8009A8107E07B689B899BB223F400539AB2C9
:102408007B689A8107F10C07BD4680BC704700BF06
:1024180080B483B000AF78600B467B807B884FEA3E
:10242800C3534FEAD3539AB27B689A8007F10C07DB
:10243800BD4680BC704700BF80B483B000AF7860F1
:102448007B689B889BB24FEAC3534FEAD3539BB236
:10245800184607F10C07BD4680BC704780B485B0AC
:1024680000AF78600B467B804FF00003FB737B68FE
:102478001B889AB27B8802EA03039BB2002B03D025
:102488004FF00103FB7302E04FF00003FB73FB7B8B
:10249800184607F11407BD4680BC70475573617232
:1024A800745461736B00000049444C4500000000FF
:1024B8000D0A00002575202025632020252D3136A2
:1024C8007320202020202020202020302020203091
:1024D800252520202535750D0A00000025752020AA
:1024E80025632020252D3136732025313075202590
:1024F8003375252520202535750D0A0025752020E2
:1025080025632020252D3136732025313075202074
:102518003C31252520202535750D0A0004000020B2
:1025280000000000000000000000000000000000A3
:102538000000000000000000000000000000000093
:102548000000000000000000000000000000000083
:102558000000000000000000000000000000000073
:102568000000000000000000000000000000000063
:102578000000000000000000000000000000000053
:1025880043000000F8B500BFF8BC08BC9E46704781
:0C259800F8B500BFF8BC08BC9E467047B8
:0825A400D10800089D010008A8
:0425AC008901000899
:1025B000040000200000000028250008482500082D
:1025C0006825000800000000000000000000000076
:1025D0000000000088250008000000000000000046
:1025E00000000000000000000000000000000000EB
:1025F00000000000000000000000000000000000DB
:1026000000000000000000000000000000000000CA
:1026100000000000000000000000000000000000BA
:1026200000000000000000000000000000000000AA
:10263000000000000000000000000000000000009A
:10264000000000000000000000000000000000008A
:10265000000000000000000000000000000000007A
:10266000000000000000000000000000000000006A
:10267000000000000000000000000000000000005A
:10268000000000000000000000000000000000004A
:10269000000000000000000000000000000000003A
:1026A000000000000000000000000000F400002016
:1026B000F4000020FC000020FC00002004010020A9
:1026C000040100200C0100200C0100201401002056
:1026D000140100201C0100201C0100202401002006
:1026E000240100202C0100202C01002034010020B6
:1026F000340100203C0100203C0100204401002066
:10270000440100204C0100204C0100205401002015
:10271000540100205C0100205C01002064010020C5
:10272000640100206C0100206C0100207401002075
:10273000740100207C0100207C0100208401002025
:10274000840100208C0100208C01002094010020D5
:10275000940100209C0100209C010020A401002085
:10276000A4010020AC010020AC010020B401002035
:10277000B4010020BC010020BC010020C4010020E5
:10278000C4010020CC010020CC010020D401002095
:10279000D4010020DC010020DC010020E401002045
:1027A000E4010020EC010020EC010020F4010020F5
:1027B000F4010020FC010020FC01002004020020A4
:1027C000040200200C0200200C0200201402002051
:1027D000140200201C0200201C0200202402002001
:1027E000240200202C0200202C02002034020020B1
:1027F000340200203C0200203C0200204402002061
:10280000440200204C0200204C0200205402002010
:10281000540200205C0200205C02002064020020C0
:10282000640200206C0200206C0200207402002070
:10283000740200207C0200207C0200208402002020
:10284000840200208C0200208C02002094020020D0
:10285000940200209C0200209C020020A402002080
:10286000A4020020AC020020AC020020B402002030
:10287000B4020020BC020020BC020020C4020020E0
:10288000C4020020CC020020CC020020D402002090
:10289000D4020020DC020020DC020020E402002040
:1028A000E4020020EC020020EC020020F4020020F0
:1028B000F4020020FC020020FC020020040300209F
:1028C000040300200C0300200C030020140300204C
:1028D000140300201C0300201C03002024030020FC
:1028E000240300202C0300202C03002034030020AC
:1028F000340300203C0300203C030020440300205C
:10290000440300204C0300204C030020540300200B
:10291000540300205C0300205C03002064030020BB
:10292000640300206C0300206C030020740300206B
:10293000740300207C0300207C030020840300201B
:10294000840300208C0300208C03002094030020CB
:10295000940300209C0300209C030020A40300207B
:10296000A4030020AC030020AC030020B40300202B
:10297000B4030020BC030020BC030020C4030020DB
:10298000C4030020CC030020CC030020D40300208B
:10299000D4030020DC030020DC030020E40300203B
:1029A000E4030020EC030020EC030020F4030020EB
:1029B000F4030020FC030020FC030020040400209A
:1029C000040400200C0400200C0400201404002047
:1029D000140400201C0400201C04002024040020F7
:1029E000240400202C0400202C04002034040020A7
:1029F000340400203C0400203C0400204404002057
:102A0000440400204C0400204C0400205404002006
:102A1000540400205C0400205C04002064040020B6
:102A2000640400206C0400206C0400207404002066
:102A3000740400207C0400207C0400208404002016
:102A4000840400208C0400208C04002094040020C6
:102A5000940400209C0400209C040020A404002076
:102A6000A4040020AC040020AC040020B404002026
:102A7000B4040020BC040020BC040020C4040020D6
:102A8000C4040020CC040020CC040020D404002086
:102A9000D4040020DC040020DC040020E404002036
:102AA000E4040020EC040020EC040020FFFFFFFF02
:102AB00000000200800500208000000000000000EF
:102AC0000000000000060020800000000000000060
:102AD00000000000007A030A00010000FFFFFFFF72
:102AE000AAAAAAAA0000000001020304010203042A
:042AF00006070809C4
:040000050800112DB1
:00000001FF
